{
  "contractName": "Migrations",
  "abi": [
    {
      "inputs": [],
      "payable": false,
      "stateMutability": "nonpayable",
      "type": "constructor"
    },
    {
      "constant": true,
      "inputs": [],
      "name": "last_complete_migration",
      "outputs": [
        {
          "internalType": "uint256",
          "name": "",
          "type": "uint256"
        }
      ],
      "payable": false,
      "stateMutability": "view",
      "type": "function"
    },
    {
      "constant": true,
      "inputs": [],
      "name": "owner",
      "outputs": [
        {
          "internalType": "address",
          "name": "",
          "type": "address"
        }
      ],
      "payable": false,
      "stateMutability": "view",
      "type": "function"
    },
    {
      "constant": false,
      "inputs": [
        {
          "internalType": "uint256",
          "name": "completed",
          "type": "uint256"
        }
      ],
      "name": "setCompleted",
      "outputs": [],
      "payable": false,
      "stateMutability": "nonpayable",
      "type": "function"
    },
    {
      "constant": false,
      "inputs": [
        {
          "internalType": "address",
          "name": "new_address",
          "type": "address"
        }
      ],
      "name": "upgrade",
      "outputs": [],
      "payable": false,
      "stateMutability": "nonpayable",
      "type": "function"
    }
  ],
  "bytecode": "0x608060405234801561001057600080fd5b50336000806101000a81548173ffffffffffffffffffffffffffffffffffffffff021916908373ffffffffffffffffffffffffffffffffffffffff1602179055506102b7806100606000396000f3fe608060405234801561001057600080fd5b506004361061004c5760003560e01c80630900f0101461005157806340514746146100955780638da5cb5b146100b3578063fdacd576146100fd575b600080fd5b6100936004803603602081101561006757600080fd5b81019080803573ffffffffffffffffffffffffffffffffffffffff16906020019092919050505061012b565b005b61009d6101f7565b6040518082815260200191505060405180910390f35b6100bb6101fd565b604051808273ffffffffffffffffffffffffffffffffffffffff1673ffffffffffffffffffffffffffffffffffffffff16815260200191505060405180910390f35b6101296004803603602081101561011357600080fd5b8101908080359060200190929190505050610222565b005b6000809054906101000a900473ffffffffffffffffffffffffffffffffffffffff1673ffffffffffffffffffffffffffffffffffffffff163373ffffffffffffffffffffffffffffffffffffffff1614156101f45760008190508073ffffffffffffffffffffffffffffffffffffffff1663fdacd5766001546040518263ffffffff1660e01b815260040180828152602001915050600060405180830381600087803b1580156101da57600080fd5b505af11580156101ee573d6000803e3d6000fd5b50505050505b50565b60015481565b6000809054906101000a900473ffffffffffffffffffffffffffffffffffffffff1681565b6000809054906101000a900473ffffffffffffffffffffffffffffffffffffffff1673ffffffffffffffffffffffffffffffffffffffff163373ffffffffffffffffffffffffffffffffffffffff16141561027f57806001819055505b5056fea265627a7a7231582017cd4605bba3e7f5583f08df57a3df6609086188e41dd479a9b736cfa22289f864736f6c63430005110032",
  "source": "pragma solidity ^0.5.0;\r\n\r\ncontract Migrations{\r\n    address public owner;\r\n    uint public last_complete_migration;\r\n\r\n    constructor() public {\r\n        owner = msg.sender;\r\n    }\r\n     \r\n     modifier restricted() {\r\n         if(msg.sender == owner) _;\r\n     }\r\n\r\n     function setCompleted(uint completed) public restricted {\r\n        last_complete_migration =completed;\r\n     }\r\n     \r\n     function upgrade(address new_address) public restricted{\r\n         Migrations upgraded =Migrations(new_address);\r\n         upgraded.setCompleted(last_complete_migration); \r\n     }\r\n}\r\n\r\n",
  "sourcePath": "D:\\defi-staking-app-starter-main\\defi-staking-app-starter\\src\\contracts\\Migrations.sol",
  "compiler": {
    "name": "solc",
    "version": "0.5.17+commit.d19bba13.Emscripten.clang"
  },
  "schemaVersion": "3.4.3",
  "updatedAt": "2021-11-01T17:39:03.178Z",
  "networkType": "ethereum",
  "devdoc": {
    "methods": {}
  },
  "userdoc": {
    "methods": {}
  }
}